:020000040800F2
:10000000B806002021020008A70F0008DF0E000834
:10001000A50F0008170400080512000800000000E2
:10002000000000000000000000000000AB0F00080E
:100030001904000800000000A90F0008251000089E
:100040003B0200083B0200083B0200083B0200089C
:100050003B0200083B0200083B0200083B0200088C
:100060003B0200083B0200083B0200083B0200087C
:100070003B0200083B0200083B0200083B0200086C
:100080003B0200083B0200083B0200083B0200085C
:100090003B0200083B0200083B0200083B0200084C
:1000A0003B0200083B0200083B0200083B0200083C
:1000B0003B0200083B0200083B0200083B0200082C
:1000C0003B0200083B0200083B0200083B0200081C
:1000D0003B0200083B0200083B0200083B0200080C
:1000E0003B0200083B0200083B0200083B020008FC
:1000F0003B0200083B0200083B0200083B020008EC
:100100003B0200083B0200083B0200083B020008DB
:100110003B0200083B0200083B0200083B020008CB
:100120003B0200083B0200083B0200083B020008BB
:100130003B0200083B0200083B0200083B020008AB
:100140003B0200083B0200083B0200083B0200089B
:100150003B0200083B0200083B0200083B0200088B
:100160003B0200083B0200083B0200083B0200087B
:100170003B0200083B0200083B02000800000000B0
:100180003B02000800F002F800F03AF80AA090E8FC
:10019000000C82448344AAF10107DA4501D100F042
:1001A0002FF8AFF2090EBAE80F0013F0010F18BFD5
:1001B000FB1A43F0010318471C1600003C16000010
:1001C000103A24BF78C878C1FAD8520724BF30C883
:1001D00030C144BF04680C60704700000023002455
:1001E00000250026103A28BF78C1FBD8520728BF47
:1001F00030C148BF0B6070471FB51FBD10B510BDA3
:1002000000F0CFF81146FFF7F7FF01F053F900F0C7
:10021000EDF803B4FFF7F2FF03BC00F0F5F80000BF
:100220000948804709480047FEE7FEE7FEE7FEE78A
:10023000FEE7FEE7FEE7FEE7FEE7FEE704480549C6
:10024000054A064B70470000791000088501000838
:10025000B8000020B8060020B8020020B802002034
:1002600053EA020C00F069802DE9F04B4FF00006D4
:10027000002B1FBFB3FA83F503FA05F424FA05F641
:100280005E4012BF1643B2FA82F502FA05F4C5F1D8
:1002900020051EBF22FA05FC44EA0C04203556EA6C
:1002A000044C4FEA144418BF641C4FF000084FF090
:1002B0000009904271EB030C39D3002919BFB1FA40
:1002C00081F701FA07F6B0FA80F700FA07F6C7F1EE
:1002D00020071EBF20FA07FC46EA0C062037B6FBB3
:1002E000F4FCA7EB0507103F07F01F0BCBF120062E
:1002F0000CFA0BFB2CFA06F644BFB3460026202F5F
:10030000A4BF5E464FF0000B5BEA060C08BF4FF03F
:10031000010B19EB0B09ABFB027C48EB0608C01B79
:1003200006FB02CC0BFB03CC71EB0C01C1E70B46C7
:10033000024641464846BDE8F08B13B54FF0000039
:100340004FF00001AFF30080BDE81C4070474FF054
:10035000000200B5134694469646203922BFA0E815
:100360000C50A0E80C50B1F12001BFF4F7AF090721
:1003700028BFA0E80C5048BF0CC05DF804EB890012
:1003800028BF40F8042B08BF704748BF20F8022B55
:1003900011F0804F18BF00F8012B7047704770476D
:1003A0007047754600F02CF8AE4605006946534686
:1003B00020F00700854618B020B5FFF73FFFBDE8E5
:1003C00020404FF000064FF000074FF000084FF0BC
:1003D000000B21F00701AC46ACE8C009ACE8C0094D
:1003E000ACE8C009ACE8C0098D46704710B50446BA
:1003F000AFF300802046BDE81040FFF70ABF0000C1
:10040000004870475400002001491820ABBEFEE7A9
:10041000260002007047FEE77047000031B500F08B
:100420005DF9009C0546601C02D004480078044435
:1004300000F054F9401BA042FAD338BD0000002060
:100440002DE9F04FDFF85092002309F1040A01264C
:1004500003250AF1040B85B00F270BF1040E12E1FE
:10046000224606FA03F422407ED091F804C00CF034
:10047000030CBCF1010F02D0BCF1020F26D1D0F861
:100480000880CDF800804FEA430805FA08FCCDF853
:100490001080DDF8008028EA0C08CDF80080D1F843
:1004A0000CC0DDF810800CFA08FCDDF800804CEA86
:1004B000080CC0F808C0D0F804C02CEA040C0C7971
:1004C000C4F300149C4044EA0C0444600C79E443F7
:1004D000A40712D0C4684FEA430CCDF808C005FA4F
:1004E0000CFC24EA0C04D1F80880DDF808C008FAF6
:1004F0000CF848EA0408C0F80C800C7904F00304F6
:10050000022C16D1DC0800EB840CCDF808C0DCF816
:1005100020C05C074FEAD46807FA08F42CEA040C00
:100520000C6904FA08F444EA0C04DDF808C0CCF8BD
:10053000204004684FEA430805FA08FC24EA0C044A
:1005400091F804C00CF0030C0CFA08FC4CEA040C03
:10055000C0F800C04C6814F4403F05D04F4CD4F8AC
:1005600000C04CF4804C00E08CE0C4F800C024686B
:1005700023F0030C04F480440094494C6444029436
:10058000D4F808484FEA837C4FEA1C7807FA08FC45
:1005900024EA0C04DFF80CC1604502D14FF0000CD6
:1005A00039E0DFF804C1604502D14FF0010C32E0C0
:1005B000DFF8F8C0604502D14FF0020C2BE0DFF805
:1005C000F0C0604502D14FF0030C24E0DFF8E4C036
:1005D000604502D14FF0040C1DE0DFF8DCC060453F
:1005E00002D14FF0050C16E0DFF8D0C0604502D113
:1005F0004FF0060C0FE0DFF8C8C0604502D14FF0A5
:10060000070C08E0DFF8BCC0604502D14FF0080CD1
:1006100001E04FF0090C0CFA08FC4CEA040C029CB7
:10062000C4F808C8D9F80040CC46D1F804809443F7
:100630005FEAC83800D51443CCF80040DAF800402F
:10064000D446D1F8048094435FEA883800D5144337
:10065000CCF80040DBF80040DC46D1F8048094433D
:100660005FEAC82800D51443CCF80040DEF800400B
:10067000F446D1F8048094435FEA882800D51443F7
:10068000CCF800405B1C0A681446DA407FF4E8AE00
:1006900005B0BDE8F08F0000003C01404438024046
:1006A0000030014000000240000402400008024007
:1006B000000C0240001002400014024000180240EA
:1006C000001C0240002002400069084000D00120C8
:1006D00070470AB1816170470904FBE701488068EF
:1006E0007047000000000020024881680278114431
:1006F00081607047000000200B4810B5016841F48C
:1007000000710160016841F480610160016841F499
:1007100080710160032000F061F80F2000F006F8FE
:1007200000F024F8002010BD003C024070B50D4DD3
:1007300004464FF47A712878B1FBF0F00A49096851
:10074000B1FBF0F000F0F8FA48B9102C07D2002203
:100750002146501E00F022F800206C6070BD012080
:1007600070BD0000000000200C0000200A4808B501
:10077000016841F480410160006800F4804000900D
:100780000548001F016841F080510160006800F0D9
:100790008050009008BD000044380240F0B40E4B79
:1007A0001B680C46C3F30223C3F10705042D00D9CF
:1007B0000425191D072901D2002300E0DB1E0126B4
:1007C00006FA05F1491E214099409E40761E1640CA
:1007D0003143F0BC00F017BD0CED00E0064900F01D
:1007E000070208684FF6FF03184040EA0220034A58
:1007F00010430860704700000CED00E00000FA05AF
:100800002DE9F0470E46050063D0DFF81C81D8F8CB
:100810000000F7B200F00F00B04207D288F8007075
:10082000D8F8000000F00F00B04252D128683F4CC9
:10083000810712D5400703D5206840F4E0502060BE
:100840002878000703D5206840F4604020602068C5
:10085000A96820F0F000084320602878C0072BD05A
:10086000324968680839012810D00968022810D078
:10087000890700292DDA216821F003010143216055
:10088000FFF72CFF814641F2883A0EE009688903A0
:10089000EFE78901EDE700BFFFF720FFA0EB0901BB
:1008A000514502D90320BDE8F0872068696800F04F
:1008B0000C00B0EB810FEFD1D8F80010404601F0EA
:1008C0000F01B14207D90770006800F00F00B04275
:1008D00001D00120E7E72878400705D52068E968BE
:1008E00020F4E050084320602878000706D52068EF
:1008F000296920F4604040EAC100206000F04EF811
:100900002168F02292FAA2F201F0F001B2FA82F22A
:10091000D140074A515CC840064908600648006853
:10092000FFF704FF0020BEE7003C02400838024009
:10093000BC1700080C0000200400002008480949EA
:10094000006809684FF4E05292FAA2F201F4E05113
:10095000B2FA82F2D140044A515CC84070470000AC
:100960000C00002008380240CC170008084809494C
:10097000006809684FF4604292FAA2F201F4604103
:10098000B2FA82F2D140044A515CC840704700007C
:100990000C00002008380240CC170008154810B59C
:1009A000006810F00C02144813D01449042A0FD028
:1009B000082A0ED10F4C241F2268236802F03F0240
:1009C0005B0207D52068C0F38810A0FB010106E098
:1009D000084610BD2168C1F38811A1FB0001002366
:1009E000FFF73EFC2168C1F30141491C4900B0FBFF
:1009F000F1F010BD083802400024F40040787D0179
:100A00002DE9F84F04007BD0DFF814B32078ABF168
:100A10000406C007A6F1040536D0DBF800105846DE
:100A2000C1F38101012907D00068C0F381000228C9
:100A300009D13068400206D52868800324D5606853
:100A40000028E0D020E0B6492079891F087060684E
:100A500068B1FFF743FE074605E000BFFFF73EFE23
:100A6000C01B642876D828688003F7D50CE0FFF710
:100A700035FE074605E000BFFFF730FEC01B6428C7
:100A8000F0D828688003F7D42078DFF898828007B0
:100A90004FF0000944D5DBF80010584611F00C0F58
:100AA0004FF0F80A07D00068C0F38100022809D18E
:100AB0003068400206D42868800715D5E068012810
:100AC0001ED111E0E068E0B10120C8F80000FFF796
:100AD00005FE074605E000BFFFF700FEC01B022829
:100AE000C0D828688007F7D528689AFAAAF2216941
:100AF000B2FA82F220F0F8009140084328600FE03B
:100B00000AE1C8F80090FFF7E9FD074605E000BFDD
:100B1000FFF7E4FDC01B02281CD828688007F7D423
:100B20002078000727D5DFF8F8A17F4861690AF12E
:100B30006C0A81B101210160FFF7D0FD074604E096
:100B4000FFF7CCFDC01B022804D8DAF800008007AC
:100B5000F6D510E082E0C0F80090FFF7BFFD074631
:100B600005E000BFFFF7BAFDC01B022876D8DAF80F
:100B700000008007F6D4207840075FD5DFF8A0A1F9
:100B800000270AF1380ADAF80000C0000BD4DAF8BE
:100B9000001041F08051CAF80010DAF80000012777
:100BA00000F0805000906148016841F4807101605C
:100BB0000168C90512D4016841F480710160FFF732
:100BC0008DFD009006E000BFFFF788FD0099401AF8
:100BD00002287ED855480068C005F5D55049207ACE
:100BE00068310870A06888B1FFF778FD009007E0D1
:100BF000FFF774FD0099411A41F28830814268D8AC
:100C00004748683000688007F2D510E0FFF766FDBE
:100C1000009007E0FFF762FD0099411A41F2883029
:100C2000814256D83E48683000688007F2D42FB120
:100C3000DAF8001021F08051CAF80010A069B8B3AA
:100C4000DBF80010C1F38101022949D00228C8F85D
:100C5000609004D0FFF742FD04463DE039E0FFF725
:100C60003DFD074605E000BFFFF738FDC01B6428C7
:100C70002FD828688001F7D4D4E907010843616AB6
:100C800094F82C20890141EA02610843A16A284AAC
:100C9000490802EB014108433168264A11400843E4
:100CA00030600120C8F86000FFF718FD044606E038
:100CB00034E000BFFFF712FD001B642809D8286844
:100CC0008001F7D52AE000BFFFF708FD001B64286C
:100CD00002D90320BDE8F88F28688001F4D41DE014
:100CE0000128F7D03068E26900F48001914213D105
:100CF000226A00F03F0191420ED1616AC0F388126E
:100D0000914209D1A26A00F44031914204D1E16AD2
:100D100000F07060884201D00120DBE70020D9E7B5
:100D20000838024000004742800E474200700040F1
:100D30000000FFFF0080BCF010B5401EB0F1807FC6
:100D400001D3012010BD4FF0E02460610F21601736
:100D500000F059FA0020A06107202061002010BD9A
:100D600070B5040004D094F83D00002510B106E0F1
:100D7000012070BD84F83C50204600F023F8242068
:100D800084F83D002068C16821F40051C16020460C
:100D900000F074F92068016921F490410161206834
:100DA000416921F02A0141612068C16841F4005184
:100DB000C1602564202084F83D0084F83E000020B6
:100DC00070BD000010B586B0044614216846FFF7D8
:100DD000BEFA1349206888421FD11248016841F4C5
:100DE00000210160006800F4002005900D481038D3
:100DF000016841F0010101600068022100F001007A
:100E000005900320CDE900010121CDE90210082061
:100E1000049069460448FFF713FB06B010BD0000BC
:100E2000004C004040380240000002402DE9F843E9
:100E3000044690F83D001F4616460D4620284CD12A
:100E4000C5B1BEB194F83C00012846D0012084F819
:100E50003C004FF00008C4F84080212084F83D0099
:100E6000FFF73CFCA6848146E684A068B0F5805F6D
:100E700003D004E00120BDE8F883206928B12E46A4
:100E80005FF0000584F83C800EE00026FAE7802140
:100E9000204600F085F9A0B9AEB116F8010B216823
:100EA0004860E08C401EE084E08C4B464FF000022E
:100EB00000970028EBD14FF04001204600F070F978
:100EC00030B10320D7E735F8020BC0F30800E6E79E
:100ED000202084F83D000020CDE70220CBE7FEE78C
:100EE0002DE9F04F87B014216846FFF730FA294802
:100EF0000024016841F004010160016801F004016F
:100F00000591016841F001010160016801F00101F2
:100F10000591016841F0020101600068DFF87890F6
:100F200000F0020041F6FF75059000222946484670
:100F3000FFF7CFFBDFF864A04BF6E47700223946D9
:100F40005046FFF7C6FBDFF858B04FF47068002238
:100F500041465846FFF7BDFB009503260125039641
:100F6000CDE9015469464846FFF76AFA00970396AF
:100F7000CDE9015469465046FFF762FACDF800808A
:100F80000396CDE9015469465846FFF759FA07B070
:100F9000BDE8F08F303802400008024000040240F3
:100FA00000000240FEE7FEE77047704701B50A23E4
:100FB000012269460148FFF739FF08BD10000020F3
:100FC0007CB5002400946D460A21019409E000BF1D
:100FD00090FBF1F201FB120290FBF1F02A55641C28
:100FE000E4B20028F4D108E0281910F8010C3030E0
:100FF000C0B2FFF7DBFF641EE4B2002CF4D17CBD6D
:1010000070B50546002407E029190A230122044887
:10101000FFF70CFF641CE4B2285D0028F4D170BD1A
:1010200010000020FFF760BB10B592B03021684679
:10103000FFF78DF914210CA8FFF789F90220009021
:101040000120039010200024049006946846FFF7C6
:10105000D7FC08B172B6FEE70F20CDE90C040E9460
:101060000F9400210CA81094FFF7CAFB002801D0B0
:1010700072B6FEE712B010BD704700002DE9F041D6
:10108000044600680169E26821F44051114301619E
:101090002169A068E2690843616911432268084335
:1010A000D16849F20C6399430143D16020684169DA
:1010B000A26921F440711143416137492068884297
:1010C00002D03649884202D1FFF750FC01E0FFF719
:1010D00035FC0246E36964203221B3F5004F02EB90
:1010E000C20303EB021362682BD09200B3FBF2F54C
:1010F000B5FBF0F5B3FBF2F66FF018077D4306EB96
:101100008505B3FBF2F601EB0515B5FBF0F5B6FB73
:10111000F0F605F0F00505EB0615B3FBF2F6B3FBB0
:10112000F2F2B2FBF0F27A4306EB820201EB02111B
:10113000B1FBF0F000F00F00216828448860BDE8A2
:10114000F0815200B3FBF2F6B6FBF0F6B3FBF2F718
:10115000B3FBF2F56FF0180C06FB0CF607EB8606F6
:1011600001EBC606B5FBF0F5B6FBF0F62D0106F077
:10117000F80605EB4605B3FBF2F6B3FBF2F2B2FB61
:10118000F0F202FB0CF206EB820201EBC201B1FBB2
:10119000F0F000F00700CFE700100140001401401C
:1011A0002DE9F041984617460E460446069D1DE07F
:1011B000681C1BD02DB1FFF791FAA0EB0800A842E4
:1011C00014D92068C16821F4D071C16020684169D8
:1011D00021F001014161202084F83D0084F83E00A7
:1011E000002084F83C000320BDE8F08120680068FE
:1011F00036EA000004D00020B842D9D00020F3E73E
:101200000120F9E7FEE70907090E002804DB00F1D9
:10121000E02080F80014704700F00F0000F1E0209B
:1012200080F8141D704700002DE9F0411C4886B07D
:101230000024016841F010010160016801F0100113
:101240000591016841F0080101600068142100F077
:10125000080005906846FFF77AF8124F4FF6FF75C1
:10126000002229463846FFF734FADFF83C80002296
:1012700029464046FFF72DFA0326CDE90054CDE973
:10128000024669463846FFF7DBF8CDE90054CDE960
:10129000024669464046FFF7D3F806B0BDE8F08144
:1012A0003038024000100240000C02402DE9F043AB
:1012B0001D4887B00025016841F0100101600168F8
:1012C00001F010010591016841F00801016000681A
:1012D000142100F0080005906846FFF738F8DFF8A1
:1012E0004C804FF6FF74002221464046FFF7F1F98B
:1012F000DFF83C90002221464846FFF7EAF9012634
:101300000327CDE90046CDE9025769464046FFF77D
:1013100097F8CDE90046CDE9025769464846FFF700
:101320008FF807B0BDE8F08330380240001002406B
:10133000000C02402DE9F04704460022C00700D00F
:1013400001225A4D01212846FFF7C3F9A00701D514
:10135000012200E0002202212846FFF7BAF96007C7
:1013600001D5012200E0002204212846FFF7B1F94F
:10137000200701D5012200E0002208212846FFF7BE
:10138000A8F9E00601D5012200E00022102128463C
:10139000FFF79FF9A00601D5012200E000222021DD
:1013A0002846FFF796F9600601D5012200E00022E9
:1013B00040212846FFF78DF9200601D5012200E0E3
:1013C000002280212846FFF784F9E00501D501229B
:1013D00000E000224FF4807631462846FFF779F985
:1013E000A00501D5012200E000224FF4007841461B
:1013F0002846FFF76EF9600501D5012200E00022C2
:101400004FF4806949462846FFF763F9200501D566
:10141000012200E000224FF4006739462846FFF71A
:1014200058F9E00401D5012200E000224FF4805A6F
:1014300051462846FFF74DF9A00401D5012200E0EE
:1014400000221B4D31462846FFF743F9600401D5C1
:10145000012200E0002241462846FFF73AF9200425
:1014600001D5012200E0002249462846FFF731F964
:10147000E00301D5012200E0002239462846FFF7AB
:1014800028F9A00301D5012200E000225146284698
:10149000FFF71FF9600301D5012200E00022284672
:1014A000BDE8F0474FF40051FFF713B900080240C0
:1014B00000040240FFF720F9FFF7B6FDFFF710FD2B
:1014C000114810490C2201604FF4E13141600021C4
:1014D0008160C160C0E904128161C161FFF740FC15
:1014E00008B172B6FEE7282200213C2000F036F851
:1014F00000213C2000F070F84FF4FA642046FEF71B
:101500008DFFFBE7004C0040100000202DE9F0416A
:101510000026DFF8348034465FF0010707FA04F54F
:10152000A9B24046FFF7D0F808B13543EEB2641CCB
:10153000E4B2082CF2D33046FFF742FD03A0FFF7D8
:101540005FFD3046BDE8F081001002402066726FFA
:101550006D20666C6173680A0000000070B5144667
:101560000D460646FFF7A2FEA022294645F2555039
:1015700000F09AF822462946304600F095F8BDE87A
:1015800070400120FEF74ABF2DE9F0470024DFF844
:1015900038900F4626464FF0010800BF08FA06F1C2
:1015A00001EA07052A4689B24846FFF792F8761CF9
:1015B0002C43F6B2082EF1D32046FFF701FDBDE81B
:1015C000F04702A0FFF71CBD0010024020777269AF
:1015D0007474656E0A0000002DE9F0410C46074660
:1015E000FFF722FE2E4D012211022846FFF771F867
:1015F000012251022846FFF76CF801229102284689
:10160000FFF767F80122D1022846FFF762F80122AE
:10161000244ED50329463046FFF75BF83846FFF7DE
:1016200089FE34B1012C07D0022C08D0032C09D03C
:101630000DE00022042107E00022202104E0002226
:10164000402101E0002280213046FFF742F80022CD
:1016500029463046FFF73DF80120FEF7DFFE204621
:10166000FFF754FF0446012229463046FFF731F8C0
:10167000012204213046FFF72CF8012220213046B8
:10168000FFF727F8012240213046FFF722F8012218
:1016900080213046FFF71DF82046BDE8F0810000AC
:1016A00000000240000402402DE9F74F414E0C4675
:1016B00007460122D1033046FFF70BF83E4D4FF4A9
:1016C0008078012241462846FFF703F84FF400795D
:1016D000012249462846FEF7FCFF4FF4806A0122AA
:1016E00051462846FEF7F5FF4FF4006B012259469C
:1016F0002846FEF7EEFF3846FFF71CFE204602990B
:10170000FFF742FF34B1012C0CD0022C12D0032C75
:1017100018D021E0002204213046FEF7DAFF002233
:10172000414616E0002220213046FEF7D2FF00227B
:1017300049460EE0002240213046FEF7CAFF002253
:10174000514606E0002280213046FEF7C2FF00220B
:1017500059462846FEF7BDFF0120FEF75FFE012235
:1017600041462846FEF7B5FF012249462846FEF7C6
:10177000B0FF012251462846FEF7ABFF0122594631
:101780002846FEF7A6FF012204213046FEF7A1FFFE
:10179000012220213046FEF79CFF012240213046E5
:1017A000FEF797FF03B03046BDE8F04F01228021DD
:1017B000FEF78FBF0004024000000240000000005E
:1017C00000000000010203040607080900000000F1
:1017D00001020304F41700080000002010000000BC
:1017E000C00100080418000810000020A80600002E
:1017F000DC010008010000001000000000000000F3
:041800000024F400CC
:040000050800018569
:00000001FF
